{
  "_format": "hh-sol-artifact-1",
  "contractName": "EncryptedAgentMemory",
  "sourceName": "contracts/EncryptedAgentMemory.sol",
  "abi": [
    {
      "anonymous": false,
      "inputs": [
        {
          "indexed": true,
          "internalType": "address",
          "name": "agent",
          "type": "address"
        }
      ],
      "name": "SecretStored",
      "type": "event"
    },
    {
      "inputs": [
        {
          "internalType": "einput",
          "name": "_encryptedSecret",
          "type": "bytes32"
        },
        {
          "internalType": "bytes",
          "name": "_proof",
          "type": "bytes"
        }
      ],
      "name": "storeSecret",
      "outputs": [],
      "stateMutability": "nonpayable",
      "type": "function"
    },
    {
      "inputs": [
        {
          "internalType": "einput",
          "name": "_guessSecret",
          "type": "bytes32"
        },
        {
          "internalType": "bytes",
          "name": "_proof",
          "type": "bytes"
        }
      ],
      "name": "verifySecret",
      "outputs": [
        {
          "internalType": "ebool",
          "name": "",
          "type": "uint256"
        }
      ],
      "stateMutability": "nonpayable",
      "type": "function"
    }
  ],
  "bytecode": "0x608060405234801561001057600080fd5b50610992806100206000396000f3fe608060405234801561001057600080fd5b50600436106100365760003560e01c8063da98bdac1461003b578063e179c34e1461006b575b600080fd5b61005560048036038101906100509190610644565b610087565b60405161006291906106e9565b60405180910390f35b61008560048036038101906100809190610644565b610133565b005b6000806100d88585858080601f016020809104026020016040519081016040528093929190818152602001838380828437600081840152601f19601f82011690508083019250505050505050610212565b90506000600a60003373ffffffffffffffffffffffffffffffffffffffff1673ffffffffffffffffffffffffffffffffffffffff1681526020019081526020016000205490506101288282610228565b925050509392505050565b60006101838484848080601f016020809104026020016040519081016040528093929190818152602001838380828437600081840152601f19601f82011690508083019250505050505050610212565b905080600a60003373ffffffffffffffffffffffffffffffffffffffff1673ffffffffffffffffffffffffffffffffffffffff168152602001908152602001600020819055503373ffffffffffffffffffffffffffffffffffffffff167f0977f4c93d6a66455eb4f1467e8a01fec7c62b1ce20353fb51b7269712e1196760405160405180910390a250505050565b600061022083836005610272565b905092915050565b6000610233836103c3565b6102445761024160006103d0565b92505b61024d826103c3565b61025e5761025b60006103d0565b91505b61026a838360006103e4565b905092915050565b60008061027d6104bc565b90508060010160009054906101000a900473ffffffffffffffffffffffffffffffffffffffff1673ffffffffffffffffffffffffffffffffffffffff16632e817ff08633878760f81b6040518563ffffffff1660e01b81526004016102e5949392919061081f565b6020604051808303816000875af1158015610304573d6000803e3d6000fd5b505050506040513d601f19601f820116820180604052508101906103289190610897565b91508060000160009054906101000a900473ffffffffffffffffffffffffffffffffffffffff1673ffffffffffffffffffffffffffffffffffffffff16638d9c9c9283336040518363ffffffff1660e01b81526004016103899291906108d3565b600060405180830381600087803b1580156103a357600080fd5b505af11580156103b7573d6000803e3d6000fd5b50505050509392505050565b6000808214159050919050565b60006103dd8260056104e4565b9050919050565b60008082156103f957600160f81b9050610401565b600060f81b90505b600061040b6104bc565b90508060010160009054906101000a900473ffffffffffffffffffffffffffffffffffffffff1673ffffffffffffffffffffffffffffffffffffffff16636be317588787856040518463ffffffff1660e01b815260040161046e939291906108fc565b6020604051808303816000875af115801561048d573d6000803e3d6000fd5b505050506040513d601f19601f820116820180604052508101906104b19190610897565b925050509392505050565b60007fed8d60e34876f751cc8b014c560745351147d9de11b9347c854e881b128ea600905090565b6000806104ef6104bc565b90508060010160009054906101000a900473ffffffffffffffffffffffffffffffffffffffff1673ffffffffffffffffffffffffffffffffffffffff1663e71746b8858560f81b6040518363ffffffff1660e01b8152600401610553929190610933565b6020604051808303816000875af1158015610572573d6000803e3d6000fd5b505050506040513d601f19601f820116820180604052508101906105969190610897565b91505092915050565b600080fd5b600080fd5b6000819050919050565b6105bc816105a9565b81146105c757600080fd5b50565b6000813590506105d9816105b3565b92915050565b600080fd5b600080fd5b600080fd5b60008083601f840112610604576106036105df565b5b8235905067ffffffffffffffff811115610621576106206105e4565b5b60208301915083600182028301111561063d5761063c6105e9565b5b9250929050565b60008060006040848603121561065d5761065c61059f565b5b600061066b868287016105ca565b935050602084013567ffffffffffffffff81111561068c5761068b6105a4565b5b610698868287016105ee565b92509250509250925092565b6000819050919050565b6000819050919050565b60006106d36106ce6106c9846106a4565b6106ae565b6106a4565b9050919050565b6106e3816106b8565b82525050565b60006020820190506106fe60008301846106da565b92915050565b61070d816105a9565b82525050565b600073ffffffffffffffffffffffffffffffffffffffff82169050919050565b600061073e82610713565b9050919050565b61074e81610733565b82525050565b600081519050919050565b600082825260208201905092915050565b60005b8381101561078e578082015181840152602081019050610773565b60008484015250505050565b6000601f19601f8301169050919050565b60006107b682610754565b6107c0818561075f565b93506107d0818560208601610770565b6107d98161079a565b840191505092915050565b60007fff0000000000000000000000000000000000000000000000000000000000000082169050919050565b610819816107e4565b82525050565b60006080820190506108346000830187610704565b6108416020830186610745565b818103604083015261085381856107ab565b90506108626060830184610810565b95945050505050565b610874816106a4565b811461087f57600080fd5b50565b6000815190506108918161086b565b92915050565b6000602082840312156108ad576108ac61059f565b5b60006108bb84828501610882565b91505092915050565b6108cd816106a4565b82525050565b60006040820190506108e860008301856108c4565b6108f56020830184610745565b9392505050565b600060608201905061091160008301866108c4565b61091e60208301856108c4565b61092b6040830184610810565b949350505050565b600060408201905061094860008301856108c4565b6109556020830184610810565b939250505056fea264697066735822122013ce9a22dc5a6df1964fbd6615c9c94f973ba6dd57959df4485136edc5d75e0364736f6c63430008180033",
  "linkReferences": {},
  "deployedLinkReferences": {}
}